{
  "_format": "hh-sol-artifact-1",
  "contractName": "CustomDex",
  "sourceName": "contracts/dex.sol",
  "abi": [
    {
      "inputs": [],
      "stateMutability": "nonpayable",
      "type": "constructor"
    },
    {
      "inputs": [],
      "name": "_historyIndex",
      "outputs": [
        {
          "internalType": "uint256",
          "name": "",
          "type": "uint256"
        }
      ],
      "stateMutability": "view",
      "type": "function"
    },
    {
      "inputs": [],
      "name": "getAllHistory",
      "outputs": [
        {
          "components": [
            {
              "internalType": "uint256",
              "name": "historyId",
              "type": "uint256"
            },
            {
              "internalType": "string",
              "name": "tokenA",
              "type": "string"
            },
            {
              "internalType": "string",
              "name": "tokenB",
              "type": "string"
            },
            {
              "internalType": "uint256",
              "name": "inputValue",
              "type": "uint256"
            },
            {
              "internalType": "uint256",
              "name": "outputValue",
              "type": "uint256"
            },
            {
              "internalType": "address",
              "name": "userAddress",
              "type": "address"
            }
          ],
          "internalType": "struct CustomDex.History[]",
          "name": "",
          "type": "tuple[]"
        }
      ],
      "stateMutability": "view",
      "type": "function"
    },
    {
      "inputs": [
        {
          "internalType": "string",
          "name": "tokenName",
          "type": "string"
        },
        {
          "internalType": "address",
          "name": "_address",
          "type": "address"
        }
      ],
      "name": "getBalance",
      "outputs": [
        {
          "internalType": "uint256",
          "name": "",
          "type": "uint256"
        }
      ],
      "stateMutability": "view",
      "type": "function"
    },
    {
      "inputs": [],
      "name": "getEthBalance",
      "outputs": [
        {
          "internalType": "uint256",
          "name": "",
          "type": "uint256"
        }
      ],
      "stateMutability": "view",
      "type": "function"
    },
    {
      "inputs": [
        {
          "internalType": "string",
          "name": "tokenName",
          "type": "string"
        }
      ],
      "name": "getTokenAddress",
      "outputs": [
        {
          "internalType": "address",
          "name": "",
          "type": "address"
        }
      ],
      "stateMutability": "view",
      "type": "function"
    },
    {
      "inputs": [
        {
          "internalType": "string",
          "name": "tokenName",
          "type": "string"
        }
      ],
      "name": "getTokenName",
      "outputs": [
        {
          "internalType": "string",
          "name": "",
          "type": "string"
        }
      ],
      "stateMutability": "view",
      "type": "function"
    },
    {
      "inputs": [
        {
          "internalType": "string",
          "name": "tokenName",
          "type": "string"
        }
      ],
      "name": "getTotalSupply",
      "outputs": [
        {
          "internalType": "uint256",
          "name": "",
          "type": "uint256"
        }
      ],
      "stateMutability": "view",
      "type": "function"
    },
    {
      "inputs": [
        {
          "internalType": "string",
          "name": "tokenName",
          "type": "string"
        }
      ],
      "name": "swapEthToToken",
      "outputs": [
        {
          "internalType": "uint256",
          "name": "",
          "type": "uint256"
        }
      ],
      "stateMutability": "payable",
      "type": "function"
    },
    {
      "inputs": [
        {
          "internalType": "string",
          "name": "",
          "type": "string"
        }
      ],
      "name": "tokenInstanceMap",
      "outputs": [
        {
          "internalType": "contract ERC20",
          "name": "",
          "type": "address"
        }
      ],
      "stateMutability": "view",
      "type": "function"
    },
    {
      "inputs": [
        {
          "internalType": "uint256",
          "name": "",
          "type": "uint256"
        }
      ],
      "name": "tokens",
      "outputs": [
        {
          "internalType": "string",
          "name": "",
          "type": "string"
        }
      ],
      "stateMutability": "view",
      "type": "function"
    }
  ],
  "bytecode": "0x60806040526040518061010001604052806040518060400160405280600a81526020017f546574686572205553440000000000000000000000000000000000000000000081525081526020016040518060400160405280600381526020017f424e42000000000000000000000000000000000000000000000000000000000081525081526020016040518060400160405280600881526020017f55534420436f696e00000000000000000000000000000000000000000000000081525081526020016040518060400160405280600581526020017f737445746800000000000000000000000000000000000000000000000000000081525081526020016040518060400160405280600481526020017f54524f4e0000000000000000000000000000000000000000000000000000000081525081526020016040518060400160405280600b81526020017f4d6174696320546f6b656e00000000000000000000000000000000000000000081525081526020016040518060400160405280600981526020017f534849424120494e55000000000000000000000000000000000000000000000081525081526020016040518060400160405280600781526020017f556e6973776170000000000000000000000000000000000000000000000000008152508152506000906008620001f89291906200033f565b5067016345785d8a00006002553480156200021257600080fd5b5060005b600080549050811015620003385760008082815481106200023c576200023b6200043a565b5b90600052602060002001600083815481106200025d576200025c6200043a565b5b9060005260206000200160405162000275906200039f565b6200028292919062000583565b604051809103906000f0801580156200029f573d6000803e3d6000fd5b50905080600160008481548110620002bc57620002bb6200043a565b5b90600052602060002001604051620002d5919062000658565b908152602001604051809103902060006101000a81548173ffffffffffffffffffffffffffffffffffffffff021916908373ffffffffffffffffffffffffffffffffffffffff1602179055505080806200032f90620006aa565b91505062000216565b50620009d5565b8280548282559060005260206000209081019282156200038c579160200282015b828111156200038b5782518290816200037a9190620008ee565b509160200191906001019062000360565b5b5090506200039b9190620003ad565b5090565b611827806200219f83390190565b5b80821115620003d15760008181620003c79190620003d5565b50600101620003ae565b5090565b508054620003e39062000498565b6000825580601f10620003f7575062000418565b601f0160209004906000526020600020908101906200041791906200041b565b5b50565b5b80821115620004365760008160009055506001016200041c565b5090565b7f4e487b7100000000000000000000000000000000000000000000000000000000600052603260045260246000fd5b7f4e487b7100000000000000000000000000000000000000000000000000000000600052602260045260246000fd5b60006002820490506001821680620004b157607f821691505b602082108103620004c757620004c662000469565b5b50919050565b600082825260208201905092915050565b60008190508160005260206000209050919050565b60008154620005028162000498565b6200050e8186620004cd565b945060018216600081146200052c576001811462000543576200057a565b60ff1983168652811515602002860193506200057a565b6200054e85620004de565b60005b83811015620005725781548189015260018201915060208101905062000551565b808801955050505b50505092915050565b600060408201905081810360008301526200059f8185620004f3565b90508181036020830152620005b58184620004f3565b90509392505050565b600081905092915050565b60008154620005d88162000498565b620005e48186620005be565b9450600182166000811462000602576001811462000618576200064f565b60ff19831686528115158202860193506200064f565b6200062385620004de565b60005b83811015620006475781548189015260018201915060208101905062000626565b838801955050505b50505092915050565b6000620006668284620005c9565b915081905092915050565b7f4e487b7100000000000000000000000000000000000000000000000000000000600052601160045260246000fd5b6000819050919050565b6000620006b782620006a0565b91507fffffffffffffffffffffffffffffffffffffffffffffffffffffffffffffffff8203620006ec57620006eb62000671565b5b600182019050919050565b600081519050919050565b7f4e487b7100000000000000000000000000000000000000000000000000000000600052604160045260246000fd5b60006020601f8301049050919050565b600082821b905092915050565b600060088302620007807fffffffffffffffffffffffffffffffffffffffffffffffffffffffffffffffff8262000741565b6200078c868362000741565b95508019841693508086168417925050509392505050565b6000819050919050565b6000620007cf620007c9620007c384620006a0565b620007a4565b620006a0565b9050919050565b6000819050919050565b620007eb83620007ae565b62000803620007fa82620007d6565b8484546200074e565b825550505050565b600090565b6200081a6200080b565b62000827818484620007e0565b505050565b5b818110156200084f576200084360008262000810565b6001810190506200082d565b5050565b601f8211156200089e576200086881620004de565b620008738462000731565b8101602085101562000883578190505b6200089b620008928562000731565b8301826200082c565b50505b505050565b600082821c905092915050565b6000620008c360001984600802620008a3565b1980831691505092915050565b6000620008de8383620008b0565b9150826002028217905092915050565b620008f982620006f7565b67ffffffffffffffff81111562000915576200091462000702565b5b62000921825462000498565b6200092e82828562000853565b600060209050601f83116001811462000966576000841562000951578287015190505b6200095d8582620008d0565b865550620009cd565b601f1984166200097686620004de565b60005b82811015620009a05784890151825560018201915060208501945060208101905062000979565b86831015620009c05784890151620009bc601f891682620008b0565b8355505b6001600288020188555050505b505050505050565b6117ba80620009e56000396000f3fe6080604052600436106100915760003560e01c806370ed0ada1161005957806370ed0ada1461019657806389f4b317146101c15780638cd93e8c146101fe578063a93325ed1461023b578063c40912361461027857610091565b806319b3c12d1461009657806339c5891a146100c15780634f64b2be146100ec5780635463109e1461012957806363fcf7c514610166575b600080fd5b3480156100a257600080fd5b506100ab6102b5565b6040516100b89190610afa565b60405180910390f35b3480156100cd57600080fd5b506100d66102bb565b6040516100e39190610d47565b60405180910390f35b3480156100f857600080fd5b50610113600480360381019061010e9190610da9565b610529565b6040516101209190610e20565b60405180910390f35b34801561013557600080fd5b50610150600480360381019061014b9190610f77565b6105d5565b60405161015d9190610afa565b60405180910390f35b610180600480360381019061017b9190610f77565b61068b565b60405161018d9190610afa565b60405180910390f35b3480156101a257600080fd5b506101ab610802565b6040516101b89190610afa565b60405180910390f35b3480156101cd57600080fd5b506101e860048036038101906101e39190610fec565b61080a565b6040516101f59190610afa565b60405180910390f35b34801561020a57600080fd5b5061022560048036038101906102209190610f77565b6108cc565b6040516102329190610e20565b60405180910390f35b34801561024757600080fd5b50610262600480360381019061025d9190610f77565b610987565b60405161026f91906110a7565b60405180910390f35b34801561028457600080fd5b5061029f600480360381019061029a9190610f77565b6109d0565b6040516102ac91906110d1565b60405180910390f35b60035481565b60606000600354905060008167ffffffffffffffff8111156102e0576102df610e4c565b5b60405190808252806020026020018201604052801561031957816020015b610306610a95565b8152602001906001900390816102fe5790505b50905060005b82811015610520576000600182610336919061111b565b9050600460008281526020019081526020016000206040518060c0016040529081600082015481526020016001820180546103709061117e565b80601f016020809104026020016040519081016040528092919081815260200182805461039c9061117e565b80156103e95780601f106103be576101008083540402835291602001916103e9565b820191906000526020600020905b8154815290600101906020018083116103cc57829003601f168201915b505050505081526020016002820180546104029061117e565b80601f016020809104026020016040519081016040528092919081815260200182805461042e9061117e565b801561047b5780601f106104505761010080835404028352916020019161047b565b820191906000526020600020905b81548152906001019060200180831161045e57829003601f168201915b5050505050815260200160038201548152602001600482015481526020016005820160009054906101000a900473ffffffffffffffffffffffffffffffffffffffff1673ffffffffffffffffffffffffffffffffffffffff1673ffffffffffffffffffffffffffffffffffffffff1681525050838381518110610501576105006111af565b5b6020026020010181905250508080610518906111de565b91505061031f565b50809250505090565b6000818154811061053957600080fd5b9060005260206000200160009150905080546105549061117e565b80601f01602080910402602001604051908101604052809291908181526020018280546105809061117e565b80156105cd5780601f106105a2576101008083540402835291602001916105cd565b820191906000526020600020905b8154815290600101906020018083116105b057829003601f168201915b505050505081565b60006001826040516105e79190611262565b908152602001604051809103902060009054906101000a900473ffffffffffffffffffffffffffffffffffffffff1673ffffffffffffffffffffffffffffffffffffffff166318160ddd6040518163ffffffff1660e01b8152600401602060405180830381865afa158015610660573d6000803e3d6000fd5b505050506040513d601f19601f82011682018060405250810190610684919061128e565b9050919050565b6000803490506000670de0b6b3a7640000600254836106aa91906112ea565b6106b4919061131b565b90506001846040516106c69190611262565b908152602001604051809103902060009054906101000a900473ffffffffffffffffffffffffffffffffffffffff1673ffffffffffffffffffffffffffffffffffffffff1663a9059cbb33836040518363ffffffff1660e01b815260040161072f92919061135d565b6020604051808303816000875af115801561074e573d6000803e3d6000fd5b505050506040513d601f19601f8201168201806040525081019061077291906113be565b6107b1576040517f08c379a00000000000000000000000000000000000000000000000000000000081526004016107a890611437565b60405180910390fd5b60006040518060400160405280600581526020017f457468657200000000000000000000000000000000000000000000000000000081525090506107f785828585610a18565b819350505050919050565b600047905090565b600060018360405161081c9190611262565b908152602001604051809103902060009054906101000a900473ffffffffffffffffffffffffffffffffffffffff1673ffffffffffffffffffffffffffffffffffffffff166370a08231836040518263ffffffff1660e01b815260040161088391906110d1565b602060405180830381865afa1580156108a0573d6000803e3d6000fd5b505050506040513d601f19601f820116820180604052508101906108c4919061128e565b905092915050565b60606001826040516108de9190611262565b908152602001604051809103902060009054906101000a900473ffffffffffffffffffffffffffffffffffffffff1673ffffffffffffffffffffffffffffffffffffffff166306fdde036040518163ffffffff1660e01b8152600401600060405180830381865afa158015610957573d6000803e3d6000fd5b505050506040513d6000823e3d601f19601f8201168201806040525081019061098091906114c7565b9050919050565b6001818051602081018201805184825260208301602085012081835280955050505050506000915054906101000a900473ffffffffffffffffffffffffffffffffffffffff1681565b60006001826040516109e29190611262565b908152602001604051809103902060009054906101000a900473ffffffffffffffffffffffffffffffffffffffff169050919050565b60036000815480929190610a2b906111de565b919050555060006003549050600060046000838152602001908152602001600020905081816000018190555085816001019081610a6891906116b2565b5084816002019081610a7a91906116b2565b50838160030181905550828160040181905550505050505050565b6040518060c001604052806000815260200160608152602001606081526020016000815260200160008152602001600073ffffffffffffffffffffffffffffffffffffffff1681525090565b6000819050919050565b610af481610ae1565b82525050565b6000602082019050610b0f6000830184610aeb565b92915050565b600081519050919050565b600082825260208201905092915050565b6000819050602082019050919050565b610b4a81610ae1565b82525050565b600081519050919050565b600082825260208201905092915050565b60005b83811015610b8a578082015181840152602081019050610b6f565b60008484015250505050565b6000601f19601f8301169050919050565b6000610bb282610b50565b610bbc8185610b5b565b9350610bcc818560208601610b6c565b610bd581610b96565b840191505092915050565b600073ffffffffffffffffffffffffffffffffffffffff82169050919050565b6000610c0b82610be0565b9050919050565b610c1b81610c00565b82525050565b600060c083016000830151610c396000860182610b41565b5060208301518482036020860152610c518282610ba7565b91505060408301518482036040860152610c6b8282610ba7565b9150506060830151610c806060860182610b41565b506080830151610c936080860182610b41565b5060a0830151610ca660a0860182610c12565b508091505092915050565b6000610cbd8383610c21565b905092915050565b6000602082019050919050565b6000610cdd82610b15565b610ce78185610b20565b935083602082028501610cf985610b31565b8060005b85811015610d355784840389528151610d168582610cb1565b9450610d2183610cc5565b925060208a01995050600181019050610cfd565b50829750879550505050505092915050565b60006020820190508181036000830152610d618184610cd2565b905092915050565b6000604051905090565b600080fd5b600080fd5b610d8681610ae1565b8114610d9157600080fd5b50565b600081359050610da381610d7d565b92915050565b600060208284031215610dbf57610dbe610d73565b5b6000610dcd84828501610d94565b91505092915050565b600082825260208201905092915050565b6000610df282610b50565b610dfc8185610dd6565b9350610e0c818560208601610b6c565b610e1581610b96565b840191505092915050565b60006020820190508181036000830152610e3a8184610de7565b905092915050565b600080fd5b600080fd5b7f4e487b7100000000000000000000000000000000000000000000000000000000600052604160045260246000fd5b610e8482610b96565b810181811067ffffffffffffffff82111715610ea357610ea2610e4c565b5b80604052505050565b6000610eb6610d69565b9050610ec28282610e7b565b919050565b600067ffffffffffffffff821115610ee257610ee1610e4c565b5b610eeb82610b96565b9050602081019050919050565b82818337600083830152505050565b6000610f1a610f1584610ec7565b610eac565b905082815260208101848484011115610f3657610f35610e47565b5b610f41848285610ef8565b509392505050565b600082601f830112610f5e57610f5d610e42565b5b8135610f6e848260208601610f07565b91505092915050565b600060208284031215610f8d57610f8c610d73565b5b600082013567ffffffffffffffff811115610fab57610faa610d78565b5b610fb784828501610f49565b91505092915050565b610fc981610c00565b8114610fd457600080fd5b50565b600081359050610fe681610fc0565b92915050565b6000806040838503121561100357611002610d73565b5b600083013567ffffffffffffffff81111561102157611020610d78565b5b61102d85828601610f49565b925050602061103e85828601610fd7565b9150509250929050565b6000819050919050565b600061106d61106861106384610be0565b611048565b610be0565b9050919050565b600061107f82611052565b9050919050565b600061109182611074565b9050919050565b6110a181611086565b82525050565b60006020820190506110bc6000830184611098565b92915050565b6110cb81610c00565b82525050565b60006020820190506110e660008301846110c2565b92915050565b7f4e487b7100000000000000000000000000000000000000000000000000000000600052601160045260246000fd5b600061112682610ae1565b915061113183610ae1565b9250828201905080821115611149576111486110ec565b5b92915050565b7f4e487b7100000000000000000000000000000000000000000000000000000000600052602260045260246000fd5b6000600282049050600182168061119657607f821691505b6020821081036111a9576111a861114f565b5b50919050565b7f4e487b7100000000000000000000000000000000000000000000000000000000600052603260045260246000fd5b60006111e982610ae1565b91507fffffffffffffffffffffffffffffffffffffffffffffffffffffffffffffffff820361121b5761121a6110ec565b5b600182019050919050565b600081905092915050565b600061123c82610b50565b6112468185611226565b9350611256818560208601610b6c565b80840191505092915050565b600061126e8284611231565b915081905092915050565b60008151905061128881610d7d565b92915050565b6000602082840312156112a4576112a3610d73565b5b60006112b284828501611279565b91505092915050565b7f4e487b7100000000000000000000000000000000000000000000000000000000600052601260045260246000fd5b60006112f582610ae1565b915061130083610ae1565b9250826113105761130f6112bb565b5b828204905092915050565b600061132682610ae1565b915061133183610ae1565b925082820261133f81610ae1565b91508282048414831517611356576113556110ec565b5b5092915050565b600060408201905061137260008301856110c2565b61137f6020830184610aeb565b9392505050565b60008115159050919050565b61139b81611386565b81146113a657600080fd5b50565b6000815190506113b881611392565b92915050565b6000602082840312156113d4576113d3610d73565b5b60006113e2848285016113a9565b91505092915050565b7f53776170204661696c6564000000000000000000000000000000000000000000600082015250565b6000611421600b83610dd6565b915061142c826113eb565b602082019050919050565b6000602082019050818103600083015261145081611414565b9050919050565b600061146a61146584610ec7565b610eac565b90508281526020810184848401111561148657611485610e47565b5b611491848285610b6c565b509392505050565b600082601f8301126114ae576114ad610e42565b5b81516114be848260208601611457565b91505092915050565b6000602082840312156114dd576114dc610d73565b5b600082015167ffffffffffffffff8111156114fb576114fa610d78565b5b61150784828501611499565b91505092915050565b60008190508160005260206000209050919050565b60006020601f8301049050919050565b600082821b905092915050565b6000600883026115727fffffffffffffffffffffffffffffffffffffffffffffffffffffffffffffffff82611535565b61157c8683611535565b95508019841693508086168417925050509392505050565b60006115af6115aa6115a584610ae1565b611048565b610ae1565b9050919050565b6000819050919050565b6115c983611594565b6115dd6115d5826115b6565b848454611542565b825550505050565b600090565b6115f26115e5565b6115fd8184846115c0565b505050565b5b81811015611621576116166000826115ea565b600181019050611603565b5050565b601f8211156116665761163781611510565b61164084611525565b8101602085101561164f578190505b61166361165b85611525565b830182611602565b50505b505050565b600082821c905092915050565b60006116896000198460080261166b565b1980831691505092915050565b60006116a28383611678565b9150826002028217905092915050565b6116bb82610b50565b67ffffffffffffffff8111156116d4576116d3610e4c565b5b6116de825461117e565b6116e9828285611625565b600060209050601f83116001811461171c576000841561170a578287015190505b6117148582611696565b86555061177c565b601f19841661172a86611510565b60005b828110156117525784890151825560018201915060208501945060208101905061172d565b8683101561176f578489015161176b601f891682611678565b8355505b6001600288020188555050505b50505050505056fea264697066735822122081ab6376d404c445867ebae4ef814c569c517553ab0a575499bedcf58ae5a55964736f6c6343000814003360806040523480156200001157600080fd5b5060405162001827380380620018278339818101604052810190620000379190620004d4565b818181600390816200004a9190620007a4565b5080600490816200005c9190620007a4565b5050506200007c336a084595161401484a0000006200008460201b60201c565b5050620009c2565b600073ffffffffffffffffffffffffffffffffffffffff168273ffffffffffffffffffffffffffffffffffffffff1603620000f95760006040517fec442f05000000000000000000000000000000000000000000000000000000008152600401620000f09190620008d0565b60405180910390fd5b6200010d600083836200011160201b60201c565b5050565b600073ffffffffffffffffffffffffffffffffffffffff168373ffffffffffffffffffffffffffffffffffffffff1603620001675780600260008282546200015a91906200091c565b925050819055506200023d565b60008060008573ffffffffffffffffffffffffffffffffffffffff1673ffffffffffffffffffffffffffffffffffffffff16815260200190815260200160002054905081811015620001f6578381836040517fe450d38c000000000000000000000000000000000000000000000000000000008152600401620001ed9392919062000968565b60405180910390fd5b8181036000808673ffffffffffffffffffffffffffffffffffffffff1673ffffffffffffffffffffffffffffffffffffffff16815260200190815260200160002081905550505b600073ffffffffffffffffffffffffffffffffffffffff168273ffffffffffffffffffffffffffffffffffffffff1603620002885780600260008282540392505081905550620002d5565b806000808473ffffffffffffffffffffffffffffffffffffffff1673ffffffffffffffffffffffffffffffffffffffff168152602001908152602001600020600082825401925050819055505b8173ffffffffffffffffffffffffffffffffffffffff168373ffffffffffffffffffffffffffffffffffffffff167fddf252ad1be2c89b69c2b068fc378daa952ba7f163c4a11628f55a4df523b3ef83604051620003349190620009a5565b60405180910390a3505050565b6000604051905090565b600080fd5b600080fd5b600080fd5b600080fd5b6000601f19601f8301169050919050565b7f4e487b7100000000000000000000000000000000000000000000000000000000600052604160045260246000fd5b620003aa826200035f565b810181811067ffffffffffffffff82111715620003cc57620003cb62000370565b5b80604052505050565b6000620003e162000341565b9050620003ef82826200039f565b919050565b600067ffffffffffffffff82111562000412576200041162000370565b5b6200041d826200035f565b9050602081019050919050565b60005b838110156200044a5780820151818401526020810190506200042d565b60008484015250505050565b60006200046d6200046784620003f4565b620003d5565b9050828152602081018484840111156200048c576200048b6200035a565b5b620004998482856200042a565b509392505050565b600082601f830112620004b957620004b862000355565b5b8151620004cb84826020860162000456565b91505092915050565b60008060408385031215620004ee57620004ed6200034b565b5b600083015167ffffffffffffffff8111156200050f576200050e62000350565b5b6200051d85828601620004a1565b925050602083015167ffffffffffffffff81111562000541576200054062000350565b5b6200054f85828601620004a1565b9150509250929050565b600081519050919050565b7f4e487b7100000000000000000000000000000000000000000000000000000000600052602260045260246000fd5b60006002820490506001821680620005ac57607f821691505b602082108103620005c257620005c162000564565b5b50919050565b60008190508160005260206000209050919050565b60006020601f8301049050919050565b600082821b905092915050565b6000600883026200062c7fffffffffffffffffffffffffffffffffffffffffffffffffffffffffffffffff82620005ed565b620006388683620005ed565b95508019841693508086168417925050509392505050565b6000819050919050565b6000819050919050565b6000620006856200067f620006798462000650565b6200065a565b62000650565b9050919050565b6000819050919050565b620006a18362000664565b620006b9620006b0826200068c565b848454620005fa565b825550505050565b600090565b620006d0620006c1565b620006dd81848462000696565b505050565b5b818110156200070557620006f9600082620006c6565b600181019050620006e3565b5050565b601f82111562000754576200071e81620005c8565b6200072984620005dd565b8101602085101562000739578190505b620007516200074885620005dd565b830182620006e2565b50505b505050565b600082821c905092915050565b6000620007796000198460080262000759565b1980831691505092915050565b600062000794838362000766565b9150826002028217905092915050565b620007af8262000559565b67ffffffffffffffff811115620007cb57620007ca62000370565b5b620007d7825462000593565b620007e482828562000709565b600060209050601f8311600181146200081c576000841562000807578287015190505b62000813858262000786565b86555062000883565b601f1984166200082c86620005c8565b60005b8281101562000856578489015182556001820191506020850194506020810190506200082f565b8683101562000876578489015162000872601f89168262000766565b8355505b6001600288020188555050505b505050505050565b600073ffffffffffffffffffffffffffffffffffffffff82169050919050565b6000620008b8826200088b565b9050919050565b620008ca81620008ab565b82525050565b6000602082019050620008e76000830184620008bf565b92915050565b7f4e487b7100000000000000000000000000000000000000000000000000000000600052601160045260246000fd5b6000620009298262000650565b9150620009368362000650565b9250828201905080821115620009515762000950620008ed565b5b92915050565b620009628162000650565b82525050565b60006060820190506200097f6000830186620008bf565b6200098e602083018562000957565b6200099d604083018462000957565b949350505050565b6000602082019050620009bc600083018462000957565b92915050565b610e5580620009d26000396000f3fe608060405234801561001057600080fd5b50600436106100935760003560e01c8063313ce56711610066578063313ce5671461013457806370a082311461015257806395d89b4114610182578063a9059cbb146101a0578063dd62ed3e146101d057610093565b806306fdde0314610098578063095ea7b3146100b657806318160ddd146100e657806323b872dd14610104575b600080fd5b6100a0610200565b6040516100ad9190610aa9565b60405180910390f35b6100d060048036038101906100cb9190610b64565b610292565b6040516100dd9190610bbf565b60405180910390f35b6100ee6102b5565b6040516100fb9190610be9565b60405180910390f35b61011e60048036038101906101199190610c04565b6102bf565b60405161012b9190610bbf565b60405180910390f35b61013c6102ee565b6040516101499190610c73565b60405180910390f35b61016c60048036038101906101679190610c8e565b6102f7565b6040516101799190610be9565b60405180910390f35b61018a61033f565b6040516101979190610aa9565b60405180910390f35b6101ba60048036038101906101b59190610b64565b6103d1565b6040516101c79190610bbf565b60405180910390f35b6101ea60048036038101906101e59190610cbb565b6103f4565b6040516101f79190610be9565b60405180910390f35b60606003805461020f90610d2a565b80601f016020809104026020016040519081016040528092919081815260200182805461023b90610d2a565b80156102885780601f1061025d57610100808354040283529160200191610288565b820191906000526020600020905b81548152906001019060200180831161026b57829003601f168201915b5050505050905090565b60008061029d61047b565b90506102aa818585610483565b600191505092915050565b6000600254905090565b6000806102ca61047b565b90506102d7858285610495565b6102e2858585610529565b60019150509392505050565b60006012905090565b60008060008373ffffffffffffffffffffffffffffffffffffffff1673ffffffffffffffffffffffffffffffffffffffff168152602001908152602001600020549050919050565b60606004805461034e90610d2a565b80601f016020809104026020016040519081016040528092919081815260200182805461037a90610d2a565b80156103c75780601f1061039c576101008083540402835291602001916103c7565b820191906000526020600020905b8154815290600101906020018083116103aa57829003601f168201915b5050505050905090565b6000806103dc61047b565b90506103e9818585610529565b600191505092915050565b6000600160008473ffffffffffffffffffffffffffffffffffffffff1673ffffffffffffffffffffffffffffffffffffffff16815260200190815260200160002060008373ffffffffffffffffffffffffffffffffffffffff1673ffffffffffffffffffffffffffffffffffffffff16815260200190815260200160002054905092915050565b600033905090565b610490838383600161061d565b505050565b60006104a184846103f4565b90507fffffffffffffffffffffffffffffffffffffffffffffffffffffffffffffffff81146105235781811015610513578281836040517ffb8f41b200000000000000000000000000000000000000000000000000000000815260040161050a93929190610d6a565b60405180910390fd5b6105228484848403600061061d565b5b50505050565b600073ffffffffffffffffffffffffffffffffffffffff168373ffffffffffffffffffffffffffffffffffffffff160361059b5760006040517f96c6fd1e0000000000000000000000000000000000000000000000000000000081526004016105929190610da1565b60405180910390fd5b600073ffffffffffffffffffffffffffffffffffffffff168273ffffffffffffffffffffffffffffffffffffffff160361060d5760006040517fec442f050000000000000000000000000000000000000000000000000000000081526004016106049190610da1565b60405180910390fd5b6106188383836107f4565b505050565b600073ffffffffffffffffffffffffffffffffffffffff168473ffffffffffffffffffffffffffffffffffffffff160361068f5760006040517fe602df050000000000000000000000000000000000000000000000000000000081526004016106869190610da1565b60405180910390fd5b600073ffffffffffffffffffffffffffffffffffffffff168373ffffffffffffffffffffffffffffffffffffffff16036107015760006040517f94280d620000000000000000000000000000000000000000000000000000000081526004016106f89190610da1565b60405180910390fd5b81600160008673ffffffffffffffffffffffffffffffffffffffff1673ffffffffffffffffffffffffffffffffffffffff16815260200190815260200160002060008573ffffffffffffffffffffffffffffffffffffffff1673ffffffffffffffffffffffffffffffffffffffff1681526020019081526020016000208190555080156107ee578273ffffffffffffffffffffffffffffffffffffffff168473ffffffffffffffffffffffffffffffffffffffff167f8c5be1e5ebec7d5bd14f71427d1e84f3dd0314c0f7b2291e5b200ac8c7c3b925846040516107e59190610be9565b60405180910390a35b50505050565b600073ffffffffffffffffffffffffffffffffffffffff168373ffffffffffffffffffffffffffffffffffffffff160361084657806002600082825461083a9190610deb565b92505081905550610919565b60008060008573ffffffffffffffffffffffffffffffffffffffff1673ffffffffffffffffffffffffffffffffffffffff168152602001908152602001600020549050818110156108d2578381836040517fe450d38c0000000000000000000000000000000000000000000000000000000081526004016108c993929190610d6a565b60405180910390fd5b8181036000808673ffffffffffffffffffffffffffffffffffffffff1673ffffffffffffffffffffffffffffffffffffffff16815260200190815260200160002081905550505b600073ffffffffffffffffffffffffffffffffffffffff168273ffffffffffffffffffffffffffffffffffffffff160361096257806002600082825403925050819055506109af565b806000808473ffffffffffffffffffffffffffffffffffffffff1673ffffffffffffffffffffffffffffffffffffffff168152602001908152602001600020600082825401925050819055505b8173ffffffffffffffffffffffffffffffffffffffff168373ffffffffffffffffffffffffffffffffffffffff167fddf252ad1be2c89b69c2b068fc378daa952ba7f163c4a11628f55a4df523b3ef83604051610a0c9190610be9565b60405180910390a3505050565b600081519050919050565b600082825260208201905092915050565b60005b83811015610a53578082015181840152602081019050610a38565b60008484015250505050565b6000601f19601f8301169050919050565b6000610a7b82610a19565b610a858185610a24565b9350610a95818560208601610a35565b610a9e81610a5f565b840191505092915050565b60006020820190508181036000830152610ac38184610a70565b905092915050565b600080fd5b600073ffffffffffffffffffffffffffffffffffffffff82169050919050565b6000610afb82610ad0565b9050919050565b610b0b81610af0565b8114610b1657600080fd5b50565b600081359050610b2881610b02565b92915050565b6000819050919050565b610b4181610b2e565b8114610b4c57600080fd5b50565b600081359050610b5e81610b38565b92915050565b60008060408385031215610b7b57610b7a610acb565b5b6000610b8985828601610b19565b9250506020610b9a85828601610b4f565b9150509250929050565b60008115159050919050565b610bb981610ba4565b82525050565b6000602082019050610bd46000830184610bb0565b92915050565b610be381610b2e565b82525050565b6000602082019050610bfe6000830184610bda565b92915050565b600080600060608486031215610c1d57610c1c610acb565b5b6000610c2b86828701610b19565b9350506020610c3c86828701610b19565b9250506040610c4d86828701610b4f565b9150509250925092565b600060ff82169050919050565b610c6d81610c57565b82525050565b6000602082019050610c886000830184610c64565b92915050565b600060208284031215610ca457610ca3610acb565b5b6000610cb284828501610b19565b91505092915050565b60008060408385031215610cd257610cd1610acb565b5b6000610ce085828601610b19565b9250506020610cf185828601610b19565b9150509250929050565b7f4e487b7100000000000000000000000000000000000000000000000000000000600052602260045260246000fd5b60006002820490506001821680610d4257607f821691505b602082108103610d5557610d54610cfb565b5b50919050565b610d6481610af0565b82525050565b6000606082019050610d7f6000830186610d5b565b610d8c6020830185610bda565b610d996040830184610bda565b949350505050565b6000602082019050610db66000830184610d5b565b92915050565b7f4e487b7100000000000000000000000000000000000000000000000000000000600052601160045260246000fd5b6000610df682610b2e565b9150610e0183610b2e565b9250828201905080821115610e1957610e18610dbc565b5b9291505056fea2646970667358221220f2d79faa7bf0ba4837f79f60347605687c0c95df1a49fa58a8c7f19aac2ec94164736f6c63430008140033",
  "linkReferences": {},
  "deployedLinkReferences": {}
}